:0600000002006B020C1D62
:03000B00020EA240
:03001300020C706C
:01001B0032B2
:03002300020B8548
:03002B000210823E
:01003300329A
:03003B00020CC3F1
:03004300020B4667
:01004B003282
:03005300020BD1CC
:01005B003272
:0300630002108008
:03006600020D1771
:02006900E4733E
:0D006B0075812D121234E5826003020066DB
:100078007925E94400601B7A0190150978EA75A092
:1000880000E493F2A308B8000205A0D9F4DAF275E7
:02009800A0FFC7
:06009A00E478FFF6D8FD3A
:1000A0007800E84400600A799475A000E4F309D868
:1000B000FC7856E84400600C7901900094E4F0A3C9
:0400C000D8FCD9FA95
:0A00C40090009A7401F090009BF088
:0E00CE007808E4F608F608F608F6780C7600D6
:0200DC00C2025E
:0200DE00C2035B
:0300E000020066B5
:1000E400E582900094F0E0FFF582C0071203CAD0C5
:1000F400078F82020488E582900095F0E0FFC454E3
:100104000FFE53060F7D00EE2425F582ED3413F522
:1001140083E493F582C0071200E4D00753070F7EEF
:1001240000EF2425F582EE3413F583E493F582027F
:1001340000E4AF82AE83ADF0FC900096EFF0EEA346
:10014400F0EDA3F0ECA3F0900096E0FCA3E0FDA397
:10015400E0FEA3E0FF8E038B82C007C006C005C08B
:10016400041200FAD004D0058D038B82C005C004AC
:100174001200FAD004D005D006D0078C820200FA0F
:100184001203329000A57402F075821E120D26909F
:1001940000A57402F075821F120D269007D0E4F5B5
:1001A400F0020F5FE5B05401FFE5B0035401FE9087
:1001B400009AE0FDBD0160EF705D9000F0E0FDBDD0
:1001C4001A0040030202809000ECE0F9A3E0FAA3D5
:1001D400E0FBA3E0FCE929F9EA33FAEB33FBEC3367
:1001E400FC9000ECE9F0EAA3F0EBA3F0ECA3F090B0
:1001F40000F0ED04F0C007C006120F22AA82AB8300
:10020400ACF0FDD006D0079000F1EAF0EBA3F0ECDF
:10021400A3F0EDA3F0806590009BE0FDBD015DEED1
:10022400705A9000F0E0FDBD1A0050509000ECE0D0
:10023400F9A3E0FAA3E0FBA3E0FCE929F9EA33FA25
:10024400EB33FBEC33FC9000EC740149F0EAA3F0CF
:10025400EBA3F0ECA3F09000F0ED04F0C007C006AF
:10026400120F22AA82AB83ACF0FDD006D007900017
:10027400F1EAF0EBA3F0ECA3F0EDA3F090009AEF19
:10028400F090009BEEF09000F0E0700122120F223B
:10029400AC82AD83AEF0FF9000F1E0F8A3E0F9A3E7
:1002A400E0FAA3E0FBECC398FCED99FDEE9AFEEFB7
:1002B4009BFFC3EC94C8ED9400EE9400EF940040CF
:1002C4006B9000F0E090009CF09000ECE0FCA3E068
:1002D400FDA3E0FEA3E0FF90009DECF0EDA3F0EEA3
:1002E400A3F0EFA3F09000ECE4F0A3F0A3F0A3F0EC
:1002F4009000F0F090009CE0FFBF1A2490009DE075
:10030400FCA3E0FDA3E0FEA3E0C313EE13FEED1394
:10031400FDEC13FC7F008C828D838EF0EF1201368E
:0D0324007582B01203CA7582B002048822EF
:10033200120B02120B2C120B1B75DD0075D300750C
:10034200D5002275D30074FC55D24402F5D2900038
:10035200F5E4F022A2DE229000A4E07003F58222EE
:100362007E007F009000F5E060200EBE00010F903D
:100372000005C007C006121010D006D007C3EE94C5
:1003820050EF94C340DE758200227F00BF08005008
:10039200278F057E0074402DFDE43EFEED240AFD0C
:1003A200EE3400FEEF24F6F582E43400F583E0FC3F
:1003B2008D828E83F00F80D475D3089000F574017E
:1003C200F053D2FC75820122AF82BF880040088FB1
:1003D20006EE2478FE8042BF800040239000F6E0C3
:1003E200FD8F04EC2480F5F005F07401800225E015
:1003F200D5F0FBFC42059000F6EDF07E00801AEF8E
:1004020090133693FE7003F58222EE30E70B9000D4
:10041200F6E04402FFF053067F9000F8E0FFB506D5
:1004220002805C9000F9E0FFB5060280529000FA6B
:10043200E0FFB5060280489000FBE0FFB5060280AF
:100442003E9000FCE0FFB5060280349000FDE0FF24
:10045200B50602802A7F027D02ED24F6FBE4340019
:10046200FC8B828C83E070088B828C83EEF0800898
:100472000D8D07BD080040E1BF08047582002212FD
:10048200035975820122AF82BF880040088F06EEB1
:100492002478FE8043BF800040249000F6E0FD8F68
:1004A20004EC2480F5F005F07401800225E0D5F01B
:1004B200FBF4FC52059000F6EDF07E00801AEF90FE
:1004C200133693FE7003F58222EE30E70B9000F6AE
:1004D200E054FDFFF053067F7F02EE6016EF24F634
:1004E200FCE43400FD8C828D83E0B506068C828D9F
:1004F20083E4F00FBF080040E11203597582012224
:100502007F00BF0800500FEF24F6F582E43400F5B7
:1005120083E4F00F80EC020359AF82C0071203CAD2
:10052200AE82D0078F82C006120488D0068E822245
:10053200AFF0AE83E5829000A1F0EEA3F0EFA3F05E
:100542009000A1E0FDA3E0FEA3E0FF8D828E838FE9
:10055200F01210FCFCA3AD82AE839000A1EDF0EE90
:10056200A3F0EFA3F0ECFB60138B82C007C006C0C0
:100572000512051BD005D006D00780CF9000A1ED53
:0F058200F0EEA3F0EFA3F022900100E0F582224B
:10059200AFDBBF0802800302098D900007E0FE7FF7
:1005A20000900006E0FD7C004FF510EC4EF5117F47
:1005B20000900001E0F5129000FEE4F0900000E0EF
:1005C200FE54606067900000E0FE5306607D00BE4E
:1005D2002005BD0002800BBE404DBD004A7FFF02D8
:1005E200098F7401B5120302098F7403B5120280D8
:1005F200177409B5120302098F740AB512030209AE
:100602008F740BB5121C800E9000FFE0FE9000006C
:10061200F07F0102098F900002E0FE9000FFF002DD
:10062200098F7FFF02098F7FFF02098FE51224F4F1
:100632005003020989E512240B83F582E512241086
:1006420083F583E4736B99895989635F89708D8F10
:100652008F09070908090706090707090990000316
:10066200E0FEBE01028011BE02028016BE030280BD
:100672001BBE2202806380797513B67514137F1234
:1006820080717513C87514137F228067900002E091
:10069200700875132D7514148034900002E0FEBEAC
:1006A200010875135B7514148024900002E0FEBEED
:1006B20002087513457514148014900002E0FEBE02
:1006C200030875133175141480047FFF8025851388
:1006D20082851483E493FF801A900002E0700E7505
:1006E20013EA7514139013E1E493FF80067FFF80F1
:1006F200027FFFBFFF0302098F8F057E00C3ED95C6
:1007020010EE951150048D108E11AD10AE11C3ED87
:100712009408EE9400920040067B087C008004ABB3
:1007220010AC118B077C00C3EC9F50198C027B002C
:10073200EC2513F582E43514F583E493F98A828B70
:1007420083F00C80E28F037C00EDC39BFDEE9CFEE8
:100752008D108E11EF2513F513E43514F5140209EB
:100762008F900002E0FE8E1075110002098F90003A
:10077200A4E0900000F0AD10AE11C3ED9401EE9430
:1007820000500302098F7F0102098F900002E0FEF0
:100792009000A4F002098F900000E0541F702F9087
:1007A2000003E0FD7E00900002E0FC7B004206EBCD
:1007B2004205BE0114BD00119013CFE493FE30E553
:1007C2000302098F7FFF02098F7FFF02098F9000CA
:1007D20000E0FE53061F7D00BE0277BD007490004C
:1007E20004E0FEBE0102805FBE02028049BE030237
:1007F2008033BE0402801DBE81028040BE82028020
:100802002ABE83028014BE844474BC55DE4402F5C1
:10081200DE02098F53DE7302098F74BC55D644027F
:10082200F5D602098F53D67302098F74BC55D4448E
:1008320002F5D402098F53D47302098F74BC55D2C6
:100842004402F5D202098F53D27302098F7FFF024D
:10085200098F7FFF02098F900000E0541F702F90D4
:100862000003E0FD7E00900002E0FC7B004206EB0C
:100872004205BE0114BD00119013CFE493FE30E592
:100882000302098F7FFF02098F7FFF02098F900009
:1008920000E0FE53061F7D00BE0205BD000280037C
:1008A200020967900003E0FD7E00900002E0FC7BFD
:1008B200004206EB4205EE4D60030209639000051B
:1008C200E0FD7E00900004E0FC7B004206EB420566
:1008D200BE0106BD0003020957BE0205BD0002802B
:1008E20060BE0305BD00028044BE0405BD00028057
:1008F20028BE8105BD00028052BE8205BD00028075
:1009020036BE8305BD0002801ABE8451BD004E74FE
:10091200BF55DE4403F5DE8074747F55DE440CF56A
:10092200DE806A74BF55D64403F5D68060747F5565
:10093200D6440CF5D6805674BF55D44403F5D48002
:100942004C747F55D4440CF5D4804274BF55D244C4
:1009520003F5D28038747F55D2440CF5D27FFF80E4
:100962002C7FFF80287FFF8024900000E4F090001D
:1009720001F0AD10AE11C3ED9402EE940040047F7D
:1009820002800AAF1080067FFF80027FFFBFFF0751
:100992007512FF75DCCF22EF24F740068FDD75DC80
:1009A200C02275DD0075DCC0227405B51202805DBF
:1009B2007406B51266AE10AF11C3EE9408EF940040
:1009C200920140067C087D008004AC10AD117D00D0
:1009D200C3ED9C50198D027B00ED2513F582E435A1
:1009E20014F583E493F98A828B83F00D80E28C0301
:1009F2007D00EEC39BFEEF9DFF8E108F11EC251341
:100A0200F513E43514F5148CDD63DC4022E5E35480
:100A120080FFE5104FF5E375DC022275DD0075DC21
:100A220002227409B51209900000E0FF900100F063
:100A320075DD0063DC802220D903020ADEE5D95489
:100A42000FFFADD95305307E00BD0005BE00028008
:100A52001BBD1005BE00028035BD2005BE00028010
:100A620042BD3005BE00028059020ADCEF24FB5071
:100A720003020ADCEF2F900A7C738008800B805AF5
:100A820080588056120A248051120356804CEF245B
:100A9200FB4047EF2F900A9B73803F803D803B8055
:100AA200398037EF24FB4032EF2F900AB073800871
:100AB200800B8026802480221209AB801D12034500
:100AC2008018EF24FB4013EF2F900ACF7380088029
:100AD20009800780058003120592C2D930D81475A7
:100AE200DC0275D21275E300C2DAC2D9C2D8900014
:100AF200A4E4F010DA0122E5DA20E20375D8FF223D
:100B020075E20053E27F43E22975E30053E2BF53EB
:100B1200D1FB75D18043D1012243E10443E1024379
:100B2200E10143D81FD2EAD2AF227E007F008EECD1
:100B32008FED7E0A7F008EEE8FEF75D21275EAC0BE
:040B420075DC02223A
:100B4600C021C0E0C0F0C082C083C007C006C00597
:100B5600C004C003C002C001C000C0D075D00012DE
:100B66000A39D0D0D000D001D002D003D004D005AD
:100B7600D006D007D083D082D0F0D0E0D02132C0CA
:100B860021C0E0C0F0C082C083C007C006C005C057
:100B960004C003C002C001C000C0D075D0003098A8
:100BA60005121118C298309905121158C299D0D061
:100BB600D000D001D002D003D004D005D006D00793
:100BC600D083D082D0F0D0E0D02132C021C0E0C0A6
:100BD600F0C082C083C007C006C005C004C003C001
:100BE60002C001C000C0D075D00030C0051211A6E9
:100BF600C2C030C1051211E6C2C1D0D0D000D001AA
:100C0600D002D003D004D005D006D007D083D0823E
:100C1600D0F0D0E0D02132C021C0E0C0F0C082C008
:100C260083C007C006C005C004C003C002C001C01F
:100C360000C0D075D000900103E0FEA3E0FFC0071E
:100C4600C0068E828F83120069D006D007D0D0D01E
:100C560000D001D002D003D004D005D006D007D0F2
:100C660083D082D0F0D0E0D02132C021C0E0C0F0E5
:100C7600C082C083C007C006C005C004C003C0024E
:100C8600C001C000C0D075D000900105E0FEA3E011
:100C9600FFC007C0068E828F83120069D006D00778
:100CA600D0D0D000D001D002D003D004D005D006D9
:100CB600D007D083D082D0F0D0E0D02132C021C07E
:100CC600E0C0F0C082C083C007C006C005C004C033
:100CD60003C002C001C000C0D075D000900101E081
:100CE600FEA3E04E600E900101E0F8A3E0F58388D4
:100CF60082120069D0D0D000D001D002D003D00437
:100D0600D005D006D007D083D082D0F0D0E0D02155
:100D16003212104B1201841201A880FB7582002248
:100D2600E582FF9014B993FEEF90149193FF700142
:100D3600229000A5E0FD701BBF0209EEF4FC529262
:100D4600EC529322BF0402800122EEF4FC5296EC90
:100D5600529722BD0214BF0207EE4292EE42932240
:100D6600BF0439EE4296EE429722BD0116BF020835
:100D7600EEF45292EE429322BF0421EEF45296EE26
:100D8600429722BD0316BF0208EE4292EEF452933A
:100D960022BF0408EE4296EEF4FE529722AF82BFBF
:100DA6000102800FBF02028013BF03028017BF0437
:100DB60025801BE5C620E21E539DFB22E5C620E3E7
:100DC60015539DF722E5C630E20C539DFB22E5C67E
:100DD60030E303539DF722E582FF90146993FEEFFB
:100DE6009014B993FDEF90149193FF7003F582224E
:100DF600EE600D8E82C007C005120DA3D005D00788
:100E06007E00BF0202800ABF03028009BF040C8075
:100E160008AE908006AEA08002AEB0ED5E600475AE
:100E260082012275820022E582FF90146993FEEF0B
:100E36009014B993FDEF90149193FFEE600D8E829E
:100E4600C007C005120DA3D005D007A2AFE433FE3C
:100E5600C2AFBF0202800ABF03028017BF043680FA
:100E6600249000A6E07007EDF4FF52908027ED4233
:100E76009080229000A6E07007EDF4FF52A0801546
:100E8600ED42A080109000A6E07007EDF4FF52B08E
:0B0E96008003ED42B0EE6002D2AF22FC
:100EA200C0D075D00808B8000D09B900090ABA0007
:100EB200050BBB00010CD0D032A2AFC2AFA808A96B
:100EC20009AA0AAB0BAC8A8588F092AF30F512748E
:100ED200012C600D08B8000909B900050ABA000121
:100EE2000BC3EC9406FCECC313FC75F07DE8A4F88C
:100EF200ADF075F07DE9A42DF9E435F0FD75F07DD6
:100F0200EAA42DFAE435F0FD75F07DEBA42DFB7D0E
:100F120000EC28F582E93DF583EA3DF5F0EB3D2250
:100F2200A2AFC2AFA808A909AA0AAB0BAC0C92AF38
:100F320075F020E8A4A8F075F020E9A428F582A8AD
:100F4200F075F020EAA428F583A8F075F020EBA450
:100F520028F9A8F075F020ECA42889F022858222D5
:100F620085832385F024F525120EBB858226858391
:100F72002785F028F529E5224523452445257001DA
:100F820022A822A923AA24AB2585262A85272B85D8
:100F9200282C85292DE8494A4B60DBC003C002C0DA
:100FA20001C000120EBBAC82AD83AEF0FFD000D008
:100FB20001D002D003ECC3952AFCED952BFDEE95F2
:100FC2002CFEEF952DFFC3EC94E8ED9403EE940014
:100FD200EF940040A118B8FF0919B9FF051ABAFF2A
:100FE200011B882289238A248B2574E8252AF52A65
:100FF2007403352BF52BE4352CF52CE4352DF52D2A
:10100200852A26852B27852C28852D298087AE8247
:10101200AF83C374019EE49F40022200C374029E08
:10102200FE74009FFF00BE0005BF00020022000008
:101032000000000000000000000000000000000EA0
:10104200BE00EB0FBF00ED002275A15575A1AA7479
:10105200F855B94406F5B975A1009013881210101D
:10106200759E5D759D0074F055894402F58953C9DA
:0D107200EF758C06C28DD2A9D28CD2AF22B0
:01108000323D
:01108200323B
:1010840022AF82BF0200503EEF75F002A42403FD9C
:10109400740135F0FE9000A7E0FBA3E0FC8D828E86
:1010A40083EBF0ECA3F0BF00028005BF0118800BB6
:1010B4009000A9E024FF9288D2A8229000A9E0FF22
:1010C40024FF928AD2AA22AF82BF02005028BF0016
:1010D400028005BF01088004C2A88002C2AAEF757D
:1010E400F002A42403FE740135F0FF8E828F837412
:0710F40084F07410A3F02248
:1010FC0020F71430F6148883A88220F507E6A8831D
:0C110C0075830022E280F7E49322E022C9
:10111800900107E0FF7E000FBF00010E7410C0E0D1
:10112800E4C0E08F828E83121238AE821581158159
:10113800900108E0FFEEB5070122900107E024AA1C
:10114800F582E43400F583E599F0900107EEF0228A
:1011580030024A900109E0FF90010AE0FEEFB5066F
:1011680005A202C2022290010AE024BAF582E43400
:1011780000F583E0F59990010AE0FF7E000FBF00BB
:10118800010E7410C0E0E4C0E08F828E8312123822
:0E119800AE82AF831581158190010AEEF02220
:1011A60090010BE0FF7E000FBF00010E7410C0E03F
:1011B600E4C0E08F828E83121238AE8215811581CB
:1011C60090010CE0FFEEB507012290010BE024CA66
:1011D600F582E43400F583E5C1F090010BEEF022D0
:1011E60030034A90010DE0FF90010EE0FEEFB506D8
:1011F60005A203C2032290010EE024DAF582E4344C
:1012060000F583E0F5C190010EE0FF7E000FBF0000
:10121600010E7410C0E0E4C0E08F828E8312123893
:0E122600AE82AF831581158190010EEEF0228D
:1012340075820022C015858115AE82E583FF33E4F3
:1012440033FD6009C3E49EFBE49FFC80048E038F9E
:1012540004E51524FCF808E630E70FE51524FCF84E
:10126400C3E496FE08E496FF800AE51524FCF8869C
:1012740006088607C005C006C0078B828C8312123D
:10128400A6AE82AF8315811581D005ED600DC3E450
:101294009EFCE49FFD8C828D8380048E828F83D09C
:1012A4001522C015858115AE82AF837D007C00E5D3
:1012B4001524FCF808E6235401FB702FE51524FCE3
:1012C400F8E626F608E633F6E51524FCF8C3EE96B0
:1012D400EF08965011E51524FCF808E618C313C668
:1012E40013C608F680050C8C0580C4E51524FCF8AB
:1012F400C3EE96EF0896400DE51524FCF8EEC39670
:10130400FEEF0896FFE51524FCF808E618C313C69B
:1013140013C608F68D041DEC70D18E828F83D01510
:0113240022A6
:101325003031323334353637383941424344454616
:0113350000B7
:1013360000000000000000002A2B2800000000002A
:101346000000000000000000000000000000000097
:101356002C9EB4A0A1A2A434A6A7A5AE362D3738DC
:10136600271E1F20212223242526B333B62EB7B8E5
:101376009F8485868788898A8B8C8D8E8F909192A3
:10138600939495969798999A9B9C9D2F3130A3ADEF
:10139600350405060708090A0B0C0D0E0F1011126D
:1013A600131415161718191A1B1C1DAFB1B0B5006A
:1013B60012011001000000083D4107210001010251
:1013C60003010902220001010080640904000001F2
:1013D60003010100092110010001224300070581D4
:1013E6000308000A05010906A101050719E029E716
:1013F600150025019508750181029501750881037F
:1014060095067508150025FF0507190029E78100CF
:101416000508190129051500250195057501910293
:10142600950175039103C00403090414034300489E
:101436000035003500780020006B0062006400165D
:1014460003430048003500350078006400750069E4
:10145600006E006F000E0344006500710069006EA7
:031466000067001C
:101469000000000000000000000000000000000172
:10147900000000000000000000000000000003045C
:101489000000020000000000010101010101010149
:101499000000020202020202020200000303030327
:1014A9000303030300000404040404040404000007
:1014B90001020408102040800000010204081020E5
:1014C9004080000001020408102040800000010251
:1014D9000408102040800000FFFFFFFFFFFFFFFF0F
:1014E900FFFFFF00FFFF0102FFFFFFFFFFFFFFFFFD
:1014F900FFFFFFFFFFFFFFFF03FFFFFFFFFFFFFFEF
:0B150900170D000000000000000000B3
:09151400000000000000000000CE
:03151D00000100CA
:021520000000C9
:04152200841084109D
:0415260000000000C1
:04152A0000000000BD
:00000001FF
